{
  "contractName": "Instagram",
  "abi": [
    {
      "anonymous": false,
      "inputs": [
        {
          "indexed": false,
          "internalType": "uint256",
          "name": "id",
          "type": "uint256"
        },
        {
          "indexed": false,
          "internalType": "string",
          "name": "hash",
          "type": "string"
        },
        {
          "indexed": false,
          "internalType": "string",
          "name": "description",
          "type": "string"
        },
        {
          "indexed": false,
          "internalType": "uint256",
          "name": "tipAmount",
          "type": "uint256"
        },
        {
          "indexed": false,
          "internalType": "address payable",
          "name": "author",
          "type": "address"
        }
      ],
      "name": "ImageCreated",
      "type": "event"
    },
    {
      "anonymous": false,
      "inputs": [
        {
          "indexed": false,
          "internalType": "uint256",
          "name": "id",
          "type": "uint256"
        },
        {
          "indexed": false,
          "internalType": "string",
          "name": "hash",
          "type": "string"
        },
        {
          "indexed": false,
          "internalType": "string",
          "name": "description",
          "type": "string"
        },
        {
          "indexed": false,
          "internalType": "uint256",
          "name": "tipAmount",
          "type": "uint256"
        },
        {
          "indexed": false,
          "internalType": "address payable",
          "name": "author",
          "type": "address"
        }
      ],
      "name": "ImageTipped",
      "type": "event"
    },
    {
      "inputs": [],
      "name": "appName",
      "outputs": [
        {
          "internalType": "string",
          "name": "",
          "type": "string"
        }
      ],
      "stateMutability": "view",
      "type": "function",
      "constant": true
    },
    {
      "inputs": [],
      "name": "imageCount",
      "outputs": [
        {
          "internalType": "uint256",
          "name": "",
          "type": "uint256"
        }
      ],
      "stateMutability": "view",
      "type": "function",
      "constant": true
    },
    {
      "inputs": [
        {
          "internalType": "uint256",
          "name": "",
          "type": "uint256"
        }
      ],
      "name": "images",
      "outputs": [
        {
          "internalType": "uint256",
          "name": "id",
          "type": "uint256"
        },
        {
          "internalType": "string",
          "name": "hash",
          "type": "string"
        },
        {
          "internalType": "string",
          "name": "description",
          "type": "string"
        },
        {
          "internalType": "uint256",
          "name": "tipAmount",
          "type": "uint256"
        },
        {
          "internalType": "address payable",
          "name": "author",
          "type": "address"
        }
      ],
      "stateMutability": "view",
      "type": "function",
      "constant": true
    },
    {
      "inputs": [
        {
          "internalType": "string",
          "name": "_imgHash",
          "type": "string"
        },
        {
          "internalType": "string",
          "name": "_description",
          "type": "string"
        }
      ],
      "name": "uploadImage",
      "outputs": [],
      "stateMutability": "nonpayable",
      "type": "function"
    },
    {
      "inputs": [
        {
          "internalType": "uint256",
          "name": "_id",
          "type": "uint256"
        }
      ],
      "name": "tipImageUpload",
      "outputs": [],
      "stateMutability": "payable",
      "type": "function",
      "payable": true
    }
  ],
  "bytecode": "0x60806040526040518060400160405280600a81526020017f446563656e746772616d0000000000000000000000000000000000000000000081525060009080519060200190620000519291906200006b565b5060006002553480156200006457600080fd5b506200017f565b82805462000079906200014a565b90600052602060002090601f0160209004810192826200009d5760008555620000e9565b82601f10620000b857805160ff1916838001178555620000e9565b82800160010185558215620000e9579182015b82811115620000e8578251825591602001919060010190620000cb565b5b509050620000f89190620000fc565b5090565b5b8082111562000117576000816000905550600101620000fd565b5090565b7f4e487b7100000000000000000000000000000000000000000000000000000000600052602260045260246000fd5b600060028204905060018216806200016357607f821691505b6020821081036200017957620001786200011b565b5b50919050565b611013806200018f6000396000f3fe60806040526004361061004a5760003560e01c80630c97282c1461004f578063848564821461007a57806392053b63146100bb578063a91b8314146100e6578063b30487801461010f575b600080fd5b34801561005b57600080fd5b5061006461012b565b60405161007191906109d6565b60405180910390f35b34801561008657600080fd5b506100a1600480360381019061009c9190610a42565b6101b9565b6040516100b2959493929190610abf565b60405180910390f35b3480156100c757600080fd5b506100d061031f565b6040516100dd9190610b20565b60405180910390f35b3480156100f257600080fd5b5061010d60048036038101906101089190610c70565b610325565b005b61012960048036038101906101249190610a42565b610534565b005b6000805461013890610d17565b80601f016020809104026020016040519081016040528092919081815260200182805461016490610d17565b80156101b15780601f10610186576101008083540402835291602001916101b1565b820191906000526020600020905b81548152906001019060200180831161019457829003601f168201915b505050505081565b60016020528060005260406000206000915090508060000154908060010180546101e290610d17565b80601f016020809104026020016040519081016040528092919081815260200182805461020e90610d17565b801561025b5780601f106102305761010080835404028352916020019161025b565b820191906000526020600020905b81548152906001019060200180831161023e57829003601f168201915b50505050509080600201805461027090610d17565b80601f016020809104026020016040519081016040528092919081815260200182805461029c90610d17565b80156102e95780601f106102be576101008083540402835291602001916102e9565b820191906000526020600020905b8154815290600101906020018083116102cc57829003601f168201915b5050505050908060030154908060040160009054906101000a900473ffffffffffffffffffffffffffffffffffffffff16905085565b60025481565b6000825111610369576040517f08c379a000000000000000000000000000000000000000000000000000000000815260040161036090610d94565b60405180910390fd5b60008151116103ad576040517f08c379a00000000000000000000000000000000000000000000000000000000081526004016103a490610e26565b60405180910390fd5b6000339050600073ffffffffffffffffffffffffffffffffffffffff168173ffffffffffffffffffffffffffffffffffffffff16036103eb57600080fd5b60016002546103fa9190610e75565b6002819055506040518060a001604052806002548152602001848152602001838152602001600081526020018273ffffffffffffffffffffffffffffffffffffffff1681525060016000600254815260200190815260200160002060008201518160000155602082015181600101908051906020019061047b92919061089a565b50604082015181600201908051906020019061049892919061089a565b506060820151816003015560808201518160040160006101000a81548173ffffffffffffffffffffffffffffffffffffffff021916908373ffffffffffffffffffffffffffffffffffffffff1602179055509050507fc1d8dfa99b3f84f95d3f0bc4a768addeb97b83b20aef7f9cb6729e126bafd2f96002548484600085604051610527959493929190610f10565b60405180910390a1505050565b60008111801561054657506002548111155b610585576040517f08c379a000000000000000000000000000000000000000000000000000000000815260040161057c90610fbd565b60405180910390fd5b6000600160008381526020019081526020016000206040518060a0016040529081600082015481526020016001820180546105bf90610d17565b80601f01602080910402602001604051908101604052809291908181526020018280546105eb90610d17565b80156106385780601f1061060d57610100808354040283529160200191610638565b820191906000526020600020905b81548152906001019060200180831161061b57829003601f168201915b5050505050815260200160028201805461065190610d17565b80601f016020809104026020016040519081016040528092919081815260200182805461067d90610d17565b80156106ca5780601f1061069f576101008083540402835291602001916106ca565b820191906000526020600020905b8154815290600101906020018083116106ad57829003601f168201915b50505050508152602001600382015481526020016004820160009054906101000a900473ffffffffffffffffffffffffffffffffffffffff1673ffffffffffffffffffffffffffffffffffffffff1673ffffffffffffffffffffffffffffffffffffffff168152505090506000816080015190508073ffffffffffffffffffffffffffffffffffffffff166108fc349081150290604051600060405180830381858888f19350505050158015610784573d6000803e3d6000fd5b5034826060018181516107979190610e75565b9150818152505081600160008581526020019081526020016000206000820151816000015560208201518160010190805190602001906107d892919061089a565b5060408201518160020190805190602001906107f592919061089a565b506060820151816003015560808201518160040160006101000a81548173ffffffffffffffffffffffffffffffffffffffff021916908373ffffffffffffffffffffffffffffffffffffffff1602179055509050507f1be5317bca8d3f70dc1efe89958be71bff36cdca33fc00a6423e25eb2f1d492f838360200151846040015185606001518560405161088d959493929190610abf565b60405180910390a1505050565b8280546108a690610d17565b90600052602060002090601f0160209004810192826108c8576000855561090f565b82601f106108e157805160ff191683800117855561090f565b8280016001018555821561090f579182015b8281111561090e5782518255916020019190600101906108f3565b5b50905061091c9190610920565b5090565b5b80821115610939576000816000905550600101610921565b5090565b600081519050919050565b600082825260208201905092915050565b60005b8381101561097757808201518184015260208101905061095c565b83811115610986576000848401525b50505050565b6000601f19601f8301169050919050565b60006109a88261093d565b6109b28185610948565b93506109c2818560208601610959565b6109cb8161098c565b840191505092915050565b600060208201905081810360008301526109f0818461099d565b905092915050565b6000604051905090565b600080fd5b600080fd5b6000819050919050565b610a1f81610a0c565b8114610a2a57600080fd5b50565b600081359050610a3c81610a16565b92915050565b600060208284031215610a5857610a57610a02565b5b6000610a6684828501610a2d565b91505092915050565b610a7881610a0c565b82525050565b600073ffffffffffffffffffffffffffffffffffffffff82169050919050565b6000610aa982610a7e565b9050919050565b610ab981610a9e565b82525050565b600060a082019050610ad46000830188610a6f565b8181036020830152610ae6818761099d565b90508181036040830152610afa818661099d565b9050610b096060830185610a6f565b610b166080830184610ab0565b9695505050505050565b6000602082019050610b356000830184610a6f565b92915050565b600080fd5b600080fd5b7f4e487b7100000000000000000000000000000000000000000000000000000000600052604160045260246000fd5b610b7d8261098c565b810181811067ffffffffffffffff82111715610b9c57610b9b610b45565b5b80604052505050565b6000610baf6109f8565b9050610bbb8282610b74565b919050565b600067ffffffffffffffff821115610bdb57610bda610b45565b5b610be48261098c565b9050602081019050919050565b82818337600083830152505050565b6000610c13610c0e84610bc0565b610ba5565b905082815260208101848484011115610c2f57610c2e610b40565b5b610c3a848285610bf1565b509392505050565b600082601f830112610c5757610c56610b3b565b5b8135610c67848260208601610c00565b91505092915050565b60008060408385031215610c8757610c86610a02565b5b600083013567ffffffffffffffff811115610ca557610ca4610a07565b5b610cb185828601610c42565b925050602083013567ffffffffffffffff811115610cd257610cd1610a07565b5b610cde85828601610c42565b9150509250929050565b7f4e487b7100000000000000000000000000000000000000000000000000000000600052602260045260246000fd5b60006002820490506001821680610d2f57607f821691505b602082108103610d4257610d41610ce8565b5b50919050565b7f496d6167652048617368206c656e676874206973206c657373207468616e2031600082015250565b6000610d7e602083610948565b9150610d8982610d48565b602082019050919050565b60006020820190508181036000830152610dad81610d71565b9050919050565b7f4465736372697074696f6e206c656e676874206973206c657373207468616e2060008201527f3100000000000000000000000000000000000000000000000000000000000000602082015250565b6000610e10602183610948565b9150610e1b82610db4565b604082019050919050565b60006020820190508181036000830152610e3f81610e03565b9050919050565b7f4e487b7100000000000000000000000000000000000000000000000000000000600052601160045260246000fd5b6000610e8082610a0c565b9150610e8b83610a0c565b9250827fffffffffffffffffffffffffffffffffffffffffffffffffffffffffffffffff03821115610ec057610ebf610e46565b5b828201905092915050565b6000819050919050565b6000819050919050565b6000610efa610ef5610ef084610ecb565b610ed5565b610a0c565b9050919050565b610f0a81610edf565b82525050565b600060a082019050610f256000830188610a6f565b8181036020830152610f37818761099d565b90508181036040830152610f4b818661099d565b9050610f5a6060830185610f01565b610f676080830184610ab0565b9695505050505050565b7f496420697320696e76616c696400000000000000000000000000000000000000600082015250565b6000610fa7600d83610948565b9150610fb282610f71565b602082019050919050565b60006020820190508181036000830152610fd681610f9a565b905091905056fea2646970667358221220866a38d2c37e9b534bbba3da14060f8c053c0c5c57c16a670443be666fdbfed264736f6c634300080e0033",
  "immutableReferences": {},
  "source": "// SPDX-License-Identifier: MIT\npragma solidity ^0.8.0;\n\ncontract Instagram {\n     string public appName =\"Decentgram\";\n\n     struct Image{\n          uint id;\n          string hash;\n          string description;\n          uint tipAmount;\n          address payable author;\n     }\n\n\n     event ImageCreated(\n          uint id,\n          string hash,\n          string description,\n          uint tipAmount,\n          address payable author\n     );\n\n     event ImageTipped(uint id,string hash,string description,uint tipAmount,address payable author);\n\n     mapping(uint => Image) public images;\n     uint public imageCount=0;\n\n     function uploadImage(string memory _imgHash,string memory _description) public{\n          require(bytes(_imgHash).length >0,\"Image Hash lenght is less than 1\");\n          require(bytes(_description).length >0,\"Description lenght is less than 1\");\naddress payable masg= payable(msg.sender);\n          require(masg !=address(0x0));\n\n          imageCount =imageCount+1;\n\n          images[imageCount] =Image(imageCount,_imgHash,_description,0,masg);\n\n          emit ImageCreated(imageCount,_imgHash,_description,0,masg);\n     }\n\n     function  tipImageUpload(uint _id) public payable{\n          require(_id > 0 && _id <= imageCount,\"Id is invalid\");\n\n          Image memory _image = images[_id];\n\n          address payable _author = _image.author;\n\n          _author.transfer(msg.value);\n\n          _image.tipAmount += msg.value;\n\n          // Update the image\n          images[_id] =_image;\n\n           emit ImageTipped(_id,_image.hash,_image.description,_image.tipAmount,_author);\n     }\n\n\n\n\n}",
  "sourcePath": "/home/itsvek03/Projects/DAppInstagramClone/InstagramClone/contracts/InstagramContract.sol",
  "compiler": {
    "name": "solc",
    "version": "0.8.14+commit.80d49f37.Emscripten.clang"
  },
  "schemaVersion": "3.4.4",
  "updatedAt": "2022-05-18T09:20:20.045Z",
  "networkType": "ethereum",
  "devdoc": {
    "kind": "dev",
    "methods": {},
    "version": 1
  },
  "userdoc": {
    "kind": "user",
    "methods": {},
    "version": 1
  }
}